{"abi":[{"type":"receive","stateMutability":"payable"},{"type":"function","name":"TARGET","inputs":[],"outputs":[{"name":"","type":"address","internalType":"contract IFairCasino"}],"stateMutability":"view"},{"type":"function","name":"attack","inputs":[{"name":"nonce","type":"uint256","internalType":"uint256"}],"outputs":[],"stateMutability":"nonpayable"},{"type":"function","name":"distribute","inputs":[],"outputs":[],"stateMutability":"nonpayable"},{"type":"function","name":"preGuess","inputs":[],"outputs":[{"name":"","type":"uint256","internalType":"uint256"}],"stateMutability":"view"},{"type":"function","name":"preNonce","inputs":[],"outputs":[{"name":"","type":"uint256","internalType":"uint256"}],"stateMutability":"view"},{"type":"function","name":"prepare","inputs":[{"name":"_guess","type":"uint256","internalType":"uint256"},{"name":"_nonce","type":"uint256","internalType":"uint256"}],"outputs":[],"stateMutability":"nonpayable"},{"type":"function","name":"strikes","inputs":[],"outputs":[{"name":"","type":"uint256","internalType":"uint256"}],"stateMutability":"view"}],"bytecode":{"object":"0x6080604052731acb0745a139c814b33da5cdde2d438d9c35060e5f5f6101000a81548173ffffffffffffffffffffffffffffffffffffffff021916908373ffffffffffffffffffffffffffffffffffffffff16021790555073be99bcd0d8fde76246eae82ad5ef4a56b42c6b7d60015f6101000a81548173ffffffffffffffffffffffffffffffffffffffff021916908373ffffffffffffffffffffffffffffffffffffffff16021790555073a791d68a0e2255083faf8a219b9002d613cf063760025f6101000a81548173ffffffffffffffffffffffffffffffffffffffff021916908373ffffffffffffffffffffffffffffffffffffffff16021790555034801561010a575f5ffd5b50610d00806101185f395ff3fe608060405260043610610073575f3560e01c8063be0225111161004d578063be022511146100f8578063cc1f2afa14610122578063d36538241461014c578063e4fc6b6d146101765761007a565b806364dd891a1461007e57806393bbb51b146100a6578063b1ca3928146100ce5761007a565b3661007a57005b5f5ffd5b348015610089575f5ffd5b506100a4600480360381019061009f91906106f9565b61018c565b005b3480156100b1575f5ffd5b506100cc60048036038101906100c79190610724565b61037f565b005b3480156100d9575f5ffd5b506100e2610391565b6040516100ef9190610771565b60405180910390f35b348015610103575f5ffd5b5061010c610397565b6040516101199190610771565b60405180910390f35b34801561012d575f5ffd5b5061013661039d565b6040516101439190610804565b60405180910390f35b348015610157575f5ffd5b506101606103b5565b60405161016d9190610771565b60405180910390f35b348015610181575f5ffd5b5061018a6103bb565b005b5f8110156101cf576040517f08c379a00000000000000000000000000000000000000000000000000000000081526004016101c690610877565b60405180910390fd5b600360055410610214576040517f08c379a000000000000000000000000000000000000000000000000000000000815260040161020b906108df565b60405180910390fd5b5f6005546003610224919061092a565b90505f5f90505b81811015610372575f73ed5415679d46415f6f9a82677f8f4e9ed9d1302b73ffffffffffffffffffffffffffffffffffffffff16638a19c8bc6040518163ffffffff1660e01b8152600401602060405180830381865afa158015610291573d5f5f3e3d5ffd5b505050506040513d601f19601f820116820180604052508101906102b59190610971565b905073ed5415679d46415f6f9a82677f8f4e9ed9d1302b73ffffffffffffffffffffffffffffffffffffffff1663ab2e5a1f662386f26fc100006003548486600454610301919061099c565b6040518563ffffffff1660e01b815260040161031f939291906109cf565b5f604051808303818588803b158015610336575f5ffd5b505af1158015610348573d5f5f3e3d5ffd5b505050505060055f81548092919061035f90610a04565b919050555050808060010191505061022b565b5061037b6103c5565b5050565b81600381905550806004819055505050565b60035481565b60045481565b73ed5415679d46415f6f9a82677f8f4e9ed9d1302b81565b60055481565b6103c36103c5565b565b5f4790505f811161040b576040517f08c379a000000000000000000000000000000000000000000000000000000000815260040161040290610a95565b60405180910390fd5b5f606460328361041b9190610ab3565b6104259190610b21565b90505f6064601e846104379190610ab3565b6104419190610b21565b90505f60646014856104539190610ab3565b61045d9190610b21565b90505f5f5f9054906101000a900473ffffffffffffffffffffffffffffffffffffffff1673ffffffffffffffffffffffffffffffffffffffff16846040516104a490610b7e565b5f6040518083038185875af1925050503d805f81146104de576040519150601f19603f3d011682016040523d82523d5f602084013e6104e3565b606091505b5050905080610527576040517f08c379a000000000000000000000000000000000000000000000000000000000815260040161051e90610bdc565b60405180910390fd5b5f60015f9054906101000a900473ffffffffffffffffffffffffffffffffffffffff1673ffffffffffffffffffffffffffffffffffffffff168460405161056d90610b7e565b5f6040518083038185875af1925050503d805f81146105a7576040519150601f19603f3d011682016040523d82523d5f602084013e6105ac565b606091505b50509050806105f0576040517f08c379a00000000000000000000000000000000000000000000000000000000081526004016105e790610c44565b60405180910390fd5b5f60025f9054906101000a900473ffffffffffffffffffffffffffffffffffffffff1673ffffffffffffffffffffffffffffffffffffffff168460405161063690610b7e565b5f6040518083038185875af1925050503d805f8114610670576040519150601f19603f3d011682016040523d82523d5f602084013e610675565b606091505b50509050806106b9576040517f08c379a00000000000000000000000000000000000000000000000000000000081526004016106b090610cac565b60405180910390fd5b50505050505050565b5f5ffd5b5f819050919050565b6106d8816106c6565b81146106e2575f5ffd5b50565b5f813590506106f3816106cf565b92915050565b5f6020828403121561070e5761070d6106c2565b5b5f61071b848285016106e5565b91505092915050565b5f5f6040838503121561073a576107396106c2565b5b5f610747858286016106e5565b9250506020610758858286016106e5565b9150509250929050565b61076b816106c6565b82525050565b5f6020820190506107845f830184610762565b92915050565b5f73ffffffffffffffffffffffffffffffffffffffff82169050919050565b5f819050919050565b5f6107cc6107c76107c28461078a565b6107a9565b61078a565b9050919050565b5f6107dd826107b2565b9050919050565b5f6107ee826107d3565b9050919050565b6107fe816107e4565b82525050565b5f6020820190506108175f8301846107f5565b92915050565b5f82825260208201905092915050565b7f6e6f6e636520696e76616c6964650000000000000000000000000000000000005f82015250565b5f610861600e8361081d565b915061086c8261082d565b602082019050919050565b5f6020820190508181035f83015261088e81610855565b9050919050565b7f3320737472696b65732061747465696e747300000000000000000000000000005f82015250565b5f6108c960128361081d565b91506108d482610895565b602082019050919050565b5f6020820190508181035f8301526108f6816108bd565b9050919050565b7f4e487b71000000000000000000000000000000000000000000000000000000005f52601160045260245ffd5b5f610934826106c6565b915061093f836106c6565b9250828203905081811115610957576109566108fd565b5b92915050565b5f8151905061096b816106cf565b92915050565b5f60208284031215610986576109856106c2565b5b5f6109938482850161095d565b91505092915050565b5f6109a6826106c6565b91506109b1836106c6565b92508282019050808211156109c9576109c86108fd565b5b92915050565b5f6060820190506109e25f830186610762565b6109ef6020830185610762565b6109fc6040830184610762565b949350505050565b5f610a0e826106c6565b91507fffffffffffffffffffffffffffffffffffffffffffffffffffffffffffffffff8203610a4057610a3f6108fd565b5b600182019050919050565b7f70617320646520666f6e647300000000000000000000000000000000000000005f82015250565b5f610a7f600c8361081d565b9150610a8a82610a4b565b602082019050919050565b5f6020820190508181035f830152610aac81610a73565b9050919050565b5f610abd826106c6565b9150610ac8836106c6565b9250828202610ad6816106c6565b91508282048414831517610aed57610aec6108fd565b5b5092915050565b7f4e487b71000000000000000000000000000000000000000000000000000000005f52601260045260245ffd5b5f610b2b826106c6565b9150610b36836106c6565b925082610b4657610b45610af4565b5b828204905092915050565b5f81905092915050565b50565b5f610b695f83610b51565b9150610b7482610b5b565b5f82019050919050565b5f610b8882610b5e565b9150819050919050565b7f6c7431206661696c6564000000000000000000000000000000000000000000005f82015250565b5f610bc6600a8361081d565b9150610bd182610b92565b602082019050919050565b5f6020820190508181035f830152610bf381610bba565b9050919050565b7f6c7432206661696c6564000000000000000000000000000000000000000000005f82015250565b5f610c2e600a8361081d565b9150610c3982610bfa565b602082019050919050565b5f6020820190508181035f830152610c5b81610c22565b9050919050565b7f6c7433206661696c6564000000000000000000000000000000000000000000005f82015250565b5f610c96600a8361081d565b9150610ca182610c62565b602082019050919050565b5f6020820190508181035f830152610cc381610c8a565b905091905056fea26469706673582212205771a9ad02b222ab44df2199222cbc30e3eab9c6bcfe9573b54a0d58bb1bf8be64736f6c63430008210033","linkReferences":{}},"methodIdentifiers":{"TARGET()":"cc1f2afa","attack(uint256)":"64dd891a","distribute()":"e4fc6b6d","preGuess()":"b1ca3928","preNonce()":"be022511","prepare(uint256,uint256)":"93bbb51b","strikes()":"d3653824"},"id":0}